:020000001D28B9
:06000A00A50003088312AB
:100010000313A400831203138C1D1428141244200C
:10002000831203138C1114288312031314168312E2
:1000300003132408830025080900282083120313D2
:100040008B1783120313A001A1012008A10025280A
:10005000A300030883120313A200831603131830AE
:1000600087041413941391177830930083120313A9
:10007000363094008C118C13831603138C150B17D8
:1000800022088300230808008316031314082D395F
:1000900083120313A6000930831203132606031DDF
:1000A0005328882008002930831203132606031DD5
:1000B0005C288820A00008000C3083120313260659
:1000C000031D65282108832008002C3083120313A8
:1000D0002606031D6E28210883200800283083127D
:1000E00003132606031D75280800000088208312CC
:1000F000031394128316031394011413941383129D
:1001000003139416080083120313930014160800B7
:08011000831203131308080019
:00000001FF
